{
  "address": "0x206c5e21bD389677e0A8434092FC62828accbAF3",
  "abi": [
    {
      "inputs": [
        {
          "internalType": "uint256",
          "name": "blockTimestamp",
          "type": "uint256"
        }
      ],
      "name": "BlockTimestampIsTooBig",
      "type": "error"
    },
    {
      "inputs": [],
      "name": "CalldataMustHaveValidPayload",
      "type": "error"
    },
    {
      "inputs": [],
      "name": "CalldataOverOrUnderFlow",
      "type": "error"
    },
    {
      "inputs": [],
      "name": "CanNotPickMedianOfEmptyArray",
      "type": "error"
    },
    {
      "inputs": [
        {
          "internalType": "bytes32",
          "name": "dataFeedId",
          "type": "bytes32"
        }
      ],
      "name": "DataFeedIdNotFound",
      "type": "error"
    },
    {
      "inputs": [
        {
          "internalType": "bytes32",
          "name": "dataFeedId",
          "type": "bytes32"
        }
      ],
      "name": "DataFeedValueCannotBeZero",
      "type": "error"
    },
    {
      "inputs": [
        {
          "internalType": "uint256",
          "name": "expectedDataTimestamp",
          "type": "uint256"
        },
        {
          "internalType": "uint256",
          "name": "dataPackageTimestamp",
          "type": "uint256"
        }
      ],
      "name": "DataPackageTimestampMismatch",
      "type": "error"
    },
    {
      "inputs": [],
      "name": "DataPackageTimestampMustNotBeZero",
      "type": "error"
    },
    {
      "inputs": [],
      "name": "DataPackageTimestampsMustBeEqual",
      "type": "error"
    },
    {
      "inputs": [
        {
          "internalType": "uint256",
          "name": "dataTimestamp",
          "type": "uint256"
        }
      ],
      "name": "DataTimestampIsTooBig",
      "type": "error"
    },
    {
      "inputs": [
        {
          "internalType": "uint256",
          "name": "receivedDataTimestampMilliseconds",
          "type": "uint256"
        },
        {
          "internalType": "uint256",
          "name": "lastDataTimestampMilliseconds",
          "type": "uint256"
        }
      ],
      "name": "DataTimestampShouldBeNewerThanBefore",
      "type": "error"
    },
    {
      "inputs": [],
      "name": "EachSignerMustProvideTheSameValue",
      "type": "error"
    },
    {
      "inputs": [],
      "name": "EmptyCalldataPointersArr",
      "type": "error"
    },
    {
      "inputs": [],
      "name": "GetDataServiceIdNotImplemented",
      "type": "error"
    },
    {
      "inputs": [],
      "name": "IncorrectUnsignedMetadataSize",
      "type": "error"
    },
    {
      "inputs": [
        {
          "internalType": "uint256",
          "name": "receivedSignersCount",
          "type": "uint256"
        },
        {
          "internalType": "uint256",
          "name": "requiredSignersCount",
          "type": "uint256"
        }
      ],
      "name": "InsufficientNumberOfUniqueSigners",
      "type": "error"
    },
    {
      "inputs": [],
      "name": "InvalidCalldataPointer",
      "type": "error"
    },
    {
      "inputs": [
        {
          "internalType": "uint256",
          "name": "currentBlockTimestamp",
          "type": "uint256"
        },
        {
          "internalType": "uint256",
          "name": "lastUpdateTimestamp",
          "type": "uint256"
        },
        {
          "internalType": "uint256",
          "name": "minIntervalBetweenUpdates",
          "type": "uint256"
        }
      ],
      "name": "MinIntervalBetweenUpdatesHasNotPassedYet",
      "type": "error"
    },
    {
      "inputs": [],
      "name": "RedstonePayloadMustHaveAtLeastOneDataPackage",
      "type": "error"
    },
    {
      "inputs": [
        {
          "internalType": "address",
          "name": "receivedSigner",
          "type": "address"
        }
      ],
      "name": "SignerNotAuthorised",
      "type": "error"
    },
    {
      "inputs": [
        {
          "internalType": "uint256",
          "name": "receivedTimestampSeconds",
          "type": "uint256"
        },
        {
          "internalType": "uint256",
          "name": "blockTimestamp",
          "type": "uint256"
        }
      ],
      "name": "TimestampFromTooLongFuture",
      "type": "error"
    },
    {
      "inputs": [
        {
          "internalType": "uint256",
          "name": "receivedTimestampSeconds",
          "type": "uint256"
        },
        {
          "internalType": "uint256",
          "name": "blockTimestamp",
          "type": "uint256"
        }
      ],
      "name": "TimestampIsTooOld",
      "type": "error"
    },
    {
      "inputs": [
        {
          "internalType": "address",
          "name": "signer",
          "type": "address"
        }
      ],
      "name": "UpdaterNotAuthorised",
      "type": "error"
    },
    {
      "anonymous": false,
      "inputs": [
        {
          "indexed": false,
          "internalType": "uint8",
          "name": "version",
          "type": "uint8"
        }
      ],
      "name": "Initialized",
      "type": "event"
    },
    {
      "inputs": [
        {
          "internalType": "uint256[]",
          "name": "values",
          "type": "uint256[]"
        }
      ],
      "name": "aggregateValues",
      "outputs": [
        {
          "internalType": "uint256",
          "name": "",
          "type": "uint256"
        }
      ],
      "stateMutability": "view",
      "type": "function"
    },
    {
      "inputs": [],
      "name": "extractTimestampsAndAssertAllAreEqual",
      "outputs": [
        {
          "internalType": "uint256",
          "name": "extractedTimestamp",
          "type": "uint256"
        }
      ],
      "stateMutability": "pure",
      "type": "function"
    },
    {
      "inputs": [],
      "name": "getAllowedTimestampDiffsInSeconds",
      "outputs": [
        {
          "internalType": "uint256",
          "name": "maxDataAheadSeconds",
          "type": "uint256"
        },
        {
          "internalType": "uint256",
          "name": "maxDataDelaySeconds",
          "type": "uint256"
        }
      ],
      "stateMutability": "view",
      "type": "function"
    },
    {
      "inputs": [
        {
          "internalType": "address",
          "name": "signerAddress",
          "type": "address"
        }
      ],
      "name": "getAuthorisedSignerIndex",
      "outputs": [
        {
          "internalType": "uint8",
          "name": "",
          "type": "uint8"
        }
      ],
      "stateMutability": "view",
      "type": "function"
    },
    {
      "inputs": [],
      "name": "getBlockTimestamp",
      "outputs": [
        {
          "internalType": "uint256",
          "name": "",
          "type": "uint256"
        }
      ],
      "stateMutability": "view",
      "type": "function"
    },
    {
      "inputs": [],
      "name": "getBlockTimestampFromLatestUpdate",
      "outputs": [
        {
          "internalType": "uint256",
          "name": "blockTimestamp",
          "type": "uint256"
        }
      ],
      "stateMutability": "view",
      "type": "function"
    },
    {
      "inputs": [],
      "name": "getDataFeedIds",
      "outputs": [
        {
          "internalType": "bytes32[]",
          "name": "dataFeedIds",
          "type": "bytes32[]"
        }
      ],
      "stateMutability": "pure",
      "type": "function"
    },
    {
      "inputs": [
        {
          "internalType": "bytes32",
          "name": "dataFeedId",
          "type": "bytes32"
        }
      ],
      "name": "getDataFeedIndex",
      "outputs": [
        {
          "internalType": "uint256",
          "name": "",
          "type": "uint256"
        }
      ],
      "stateMutability": "view",
      "type": "function"
    },
    {
      "inputs": [],
      "name": "getDataServiceId",
      "outputs": [
        {
          "internalType": "string",
          "name": "",
          "type": "string"
        }
      ],
      "stateMutability": "view",
      "type": "function"
    },
    {
      "inputs": [],
      "name": "getDataTimestampFromLatestUpdate",
      "outputs": [
        {
          "internalType": "uint256",
          "name": "lastDataTimestamp",
          "type": "uint256"
        }
      ],
      "stateMutability": "view",
      "type": "function"
    },
    {
      "inputs": [],
      "name": "getMinIntervalBetweenUpdates",
      "outputs": [
        {
          "internalType": "uint256",
          "name": "",
          "type": "uint256"
        }
      ],
      "stateMutability": "view",
      "type": "function"
    },
    {
      "inputs": [],
      "name": "getPackedTimestampsFromLatestUpdate",
      "outputs": [
        {
          "internalType": "uint256",
          "name": "packedTimestamps",
          "type": "uint256"
        }
      ],
      "stateMutability": "view",
      "type": "function"
    },
    {
      "inputs": [],
      "name": "getTimestampsFromLatestUpdate",
      "outputs": [
        {
          "internalType": "uint128",
          "name": "dataTimestamp",
          "type": "uint128"
        },
        {
          "internalType": "uint128",
          "name": "blockTimestamp",
          "type": "uint128"
        }
      ],
      "stateMutability": "view",
      "type": "function"
    },
    {
      "inputs": [],
      "name": "getUniqueSignersThreshold",
      "outputs": [
        {
          "internalType": "uint8",
          "name": "",
          "type": "uint8"
        }
      ],
      "stateMutability": "view",
      "type": "function"
    },
    {
      "inputs": [
        {
          "internalType": "bytes32",
          "name": "dataFeedId",
          "type": "bytes32"
        }
      ],
      "name": "getValueForDataFeed",
      "outputs": [
        {
          "internalType": "uint256",
          "name": "",
          "type": "uint256"
        }
      ],
      "stateMutability": "view",
      "type": "function"
    },
    {
      "inputs": [
        {
          "internalType": "bytes32",
          "name": "dataFeedId",
          "type": "bytes32"
        }
      ],
      "name": "getValueForDataFeedUnsafe",
      "outputs": [
        {
          "internalType": "uint256",
          "name": "dataFeedValue",
          "type": "uint256"
        }
      ],
      "stateMutability": "view",
      "type": "function"
    },
    {
      "inputs": [
        {
          "internalType": "bytes32[]",
          "name": "dataFeedIds",
          "type": "bytes32[]"
        }
      ],
      "name": "getValuesForDataFeeds",
      "outputs": [
        {
          "internalType": "uint256[]",
          "name": "",
          "type": "uint256[]"
        }
      ],
      "stateMutability": "view",
      "type": "function"
    },
    {
      "inputs": [
        {
          "internalType": "bytes32[]",
          "name": "requestedDataFeedIds",
          "type": "bytes32[]"
        }
      ],
      "name": "getValuesForDataFeedsUnsafe",
      "outputs": [
        {
          "internalType": "uint256[]",
          "name": "values",
          "type": "uint256[]"
        }
      ],
      "stateMutability": "view",
      "type": "function"
    },
    {
      "inputs": [],
      "name": "initialize",
      "outputs": [],
      "stateMutability": "nonpayable",
      "type": "function"
    },
    {
      "inputs": [
        {
          "internalType": "address",
          "name": "updater",
          "type": "address"
        }
      ],
      "name": "requireAuthorisedUpdater",
      "outputs": [],
      "stateMutability": "view",
      "type": "function"
    },
    {
      "inputs": [
        {
          "internalType": "uint256",
          "name": "dataPackagesTimestamp",
          "type": "uint256"
        }
      ],
      "name": "updateDataFeedsValues",
      "outputs": [],
      "stateMutability": "nonpayable",
      "type": "function"
    },
    {
      "inputs": [
        {
          "internalType": "bytes32",
          "name": "dataFeedId",
          "type": "bytes32"
        },
        {
          "internalType": "uint256",
          "name": "valueForDataFeed",
          "type": "uint256"
        }
      ],
      "name": "validateDataFeedValue",
      "outputs": [],
      "stateMutability": "pure",
      "type": "function"
    },
    {
      "inputs": [
        {
          "internalType": "uint256",
          "name": "dataPackagesTimestamp",
          "type": "uint256"
        }
      ],
      "name": "validateDataPackagesTimestampOnce",
      "outputs": [],
      "stateMutability": "view",
      "type": "function"
    },
    {
      "inputs": [
        {
          "internalType": "uint256",
          "name": "dataPackagesTimestamp",
          "type": "uint256"
        }
      ],
      "name": "validateProposedDataPackagesTimestamp",
      "outputs": [],
      "stateMutability": "view",
      "type": "function"
    },
    {
      "inputs": [
        {
          "internalType": "uint256",
          "name": "receivedTimestampMilliseconds",
          "type": "uint256"
        }
      ],
      "name": "validateTimestamp",
      "outputs": [],
      "stateMutability": "view",
      "type": "function"
    }
  ],
  "transactionHash": "0x45dc585b3ee58220f159c669088360d21efb4a7f99fd4c277e48d0403f5c50bf",
  "args": [],
  "numDeployments": 1,
  "solcInputHash": "0d0660aaf77650aad421acefb996f0d3",
  "bytecode": "0x608060405234801561001057600080fd5b50611bbc806100206000396000f3fe608060405234801561001057600080fd5b50600436106101a35760003560e01c8063ada11457116100ee578063c14c920411610097578063f50b2efe11610071578063f50b2efe14610348578063f90c49241461035b578063fba0315814610362578063fd1f4bef1461036a57600080fd5b8063c14c920414610319578063c274583a1461032c578063d149c0d71461034157600080fd5b8063b1fcc5cf116100c8578063b1fcc5cf146102e0578063b24ebfcc146102f3578063bb1f29b71461030657600080fd5b8063ada1145714610285578063aef2f16514610298578063b0f106b0146102af57600080fd5b80636dafaf6a116101505780638129fc1c1161012a5780638129fc1c14610257578063971b9c0314610261578063a8b940e61461027457600080fd5b80636dafaf6a14610236578063796b89b9146102495780637a02bdf11461024f57600080fd5b806355a547d51161018157806355a547d5146101fb57806355d12458146102035780636668316a1461022357600080fd5b80631b2758ee146101a85780633ce142f5146101c357806344e02982146101e8575b600080fd5b6101b0610391565b6040519081526020015b60405180910390f35b6101d66101d1366004611803565b6103b3565b60405160ff90911681526020016101ba565b6101b06101f6366004611839565b61043d565b6101b0610466565b6102166102113660046118f4565b6105c9565b6040516101ba919061198a565b6101b0610231366004611839565b61066a565b6101b0610244366004611839565b61067e565b426101b0565b6101b06106e4565b61025f610706565b005b61021661026f3660046118f4565b61088f565b61025f610282366004611803565b50565b61025f610293366004611839565b610905565b60408051620927c0815260b46020820152016101ba565b6102b7610917565b604080516fffffffffffffffffffffffffffffffff9384168152929091166020830152016101ba565b61025f6102ee3660046119ce565b610955565b6101b06103013660046118f4565b610996565b61025f610314366004611839565b6109a1565b61025f610327366004611839565b610a66565b610334610aa8565b6040516101ba91906119f0565b60006101b0565b61025f610356366004611839565b610adc565b60016101d6565b610216610b33565b7f3d01e4d77237ea0f771f1786da4d4ff757fcba6a92933aa53b1dcef2d6bd6fe2546101b0565b600061039b610917565b6fffffffffffffffffffffffffffffffff1692915050565b600073ffffffffffffffffffffffffffffffffffffffff8216730c39486f770b26f5527bbbf942726537986cd7eb036103ee57506000919050565b6040517fec459bc000000000000000000000000000000000000000000000000000000000815273ffffffffffffffffffffffffffffffffffffffff831660048201526024015b60405180910390fd5b60006104488261067e565b5060006104548361066a565b90506104608382610955565b92915050565b600080610471610b98565b9050600061047e82610ccd565b61ffff169050806000036104be576040517f8552ff3c00000000000000000000000000000000000000000000000000000000815260040160405180910390fd5b6104c9600283611a8b565b915060005b818110156105c35760006104e184610d20565b90506000806104f1606887611a8b565b905060006104ff8236611a9e565b9050803592508265ffffffffffff16600003610547576040517f336dc9d000000000000000000000000000000000000000000000000000000000815260040160405180910390fd5b8760000361055f578265ffffffffffff1697506105a0565b878365ffffffffffff16146105a0576040517fd9d1f46500000000000000000000000000000000000000000000000000000000815260040160405180910390fd5b6105aa8488611a8b565b96505050505080806105bb90611ab1565b9150506104ce565b50505090565b6060815167ffffffffffffffff8111156105e5576105e5611852565b60405190808252806020026020018201604052801561060e578160200160208202803683370190505b50905060005b82518110156106645761063f83828151811061063257610632611ae9565b602002602001015161066a565b82828151811061065157610651611ae9565b6020908102919091010152600101610614565b50919050565b60008061067683610d5c565b549392505050565b60007f584155000000000000000000000000000000000000000000000000000000000082036106af57506000919050565b6040517f9382940300000000000000000000000000000000000000000000000000000000815260048101839052602401610434565b60006106ee610917565b506fffffffffffffffffffffffffffffffff16919050565b600054610100900460ff16158080156107265750600054600160ff909116105b806107405750303b158015610740575060005460ff166001145b6107cc576040517f08c379a000000000000000000000000000000000000000000000000000000000815260206004820152602e60248201527f496e697469616c697a61626c653a20636f6e747261637420697320616c72656160448201527f647920696e697469616c697a65640000000000000000000000000000000000006064820152608401610434565b600080547fffffffffffffffffffffffffffffffffffffffffffffffffffffffffffffff00166001179055801561082a57600080547fffffffffffffffffffffffffffffffffffffffffffffffffffffffffffff00ff166101001790555b801561028257600080547fffffffffffffffffffffffffffffffffffffffffffffffffffffffffffff00ff169055604051600181527f7f26b83ff96e1f2b6a682f133852f6798a09c465da95921460cefb38474024989060200160405180910390a150565b6060600061089c836105c9565b905060005b83518110156108fe5760008482815181106108be576108be611ae9565b602002602001015190506108d18161067e565b506108f5818484815181106108e8576108e8611ae9565b6020026020010151610955565b506001016108a1565b5092915050565b61090e81610db8565b610282816109a1565b60008061094d6109457f3d01e4d77237ea0f771f1786da4d4ff757fcba6a92933aa53b1dcef2d6bd6fe25490565b608081901c91565b915091509091565b80600003610992576040517f0565ce2a00000000000000000000000000000000000000000000000000000000815260048101839052602401610434565b5050565b600061046082610e08565b60006109af6103e883611b47565b9050620927c060b44283811015610a1257826109cb8286611a9e565b1115610a0d576040517fb6b0916d0000000000000000000000000000000000000000000000000000000081526004810185905260248101829052604401610434565b610a5f565b81610a1d8583611a9e565b1115610a5f576040517f0321d0b50000000000000000000000000000000000000000000000000000000081526004810185905260248101829052604401610434565b5050505050565b610a6e610e13565b610a7781610905565b610a8081610e76565b6000610a8a610b33565b90506000610a9782610f3c565b9050610aa38282610f47565b505050565b60606040517f608b530700000000000000000000000000000000000000000000000000000000815260040160405180910390fd5b33610ae45750565b6000610aee6106e4565b9050808214610992576040517f6bc11ec50000000000000000000000000000000000000000000000000000000081526004810182905260248101839052604401610434565b604080516001808252818301909252606091602080830190803683370190505090507f584155000000000000000000000000000000000000000000000000000000000081600081518110610b8957610b89611ae9565b60200260200101818152505090565b60006602ed57011e00007fffffffffffffffffffffffffffffffffffffffffffffffffffffffffffffffe036013581161480610c00576040517fe7764c9e00000000000000000000000000000000000000000000000000000000815260040160405180910390fd5b60003660291115610c3d576040517f5796f78a00000000000000000000000000000000000000000000000000000000815260040160405180910390fd5b507fffffffffffffffffffffffffffffffffffffffffffffffffffffffffffffffd736013560006009610c76600362ffffff8516611a8b565b610c809190611a8b565b905036610c8e600283611a8b565b1115610cc6576040517fc30a7bd700000000000000000000000000000000000000000000000000000000815260040160405180910390fd5b9392505050565b600080610cdb602084611a8b565b905036811115610d17576040517f5796f78a00000000000000000000000000000000000000000000000000000000815260040160405180910390fd5b36033592915050565b6000806000610d2e84610f97565b9092509050604e610d40826020611a8b565b610d4a9084611b5b565b610d549190611a8b565b949350505050565b604051600090610d9b9083907f4dd0c77efa6f6d590c97573d8c70b714546e7311202ff7c11c484cc841d91bfc90602001918252602082015260400190565b604051602081830303815290604052805190602001209050919050565b6000610dc26106e4565b905080821015610992576040517fef05deba0000000000000000000000000000000000000000000000000000000081526004810183905260248101829052604401610434565b600061046082610fee565b426000610e1e610391565b90506000610e2c8183611a8b565b831015610aa3576040517f83b3f5c4000000000000000000000000000000000000000000000000000000008152600481018490526024810183905260448101829052606401610434565b426fffffffffffffffffffffffffffffffff811115610ec4576040517f70db678f00000000000000000000000000000000000000000000000000000000815260048101829052602401610434565b6fffffffffffffffffffffffffffffffff821115610f11576040517f5cbfa8a100000000000000000000000000000000000000000000000000000000815260048101839052602401610434565b60809190911b177f3d01e4d77237ea0f771f1786da4d4ff757fcba6a92933aa53b1dcef2d6bd6fe255565b6060610460826110d2565b60005b8251811015610aa357610f8f838281518110610f6857610f68611ae9565b6020026020010151838381518110610f8257610f82611ae9565b6020026020010151611296565b600101610f4a565b600080808080610fa8604187611a8b565b90506000610fc1610fba602084611a8b565b36906112b3565b803594509050610fd28160036112b3565b62ffffff9490941697933563ffffffff16965092945050505050565b6000815160000361102b576040517f9e198af900000000000000000000000000000000000000000000000000000000815260040160405180910390fd5b611034826112bf565b6000600283516110449190611b47565b9050600283516110549190611b72565b6000036110b05760006110a38461106c600185611a9e565b8151811061107c5761107c611ae9565b602002602001015185848151811061109657611096611ae9565b602002602001015161130d565b9050610d54600282611b47565b8281815181106110c2576110c2611ae9565b6020026020010151915050919050565b60606000825167ffffffffffffffff8111156110f0576110f0611852565b604051908082528060200260200182016040528015611119578160200160208202803683370190505b5090506000835167ffffffffffffffff81111561113857611138611852565b604051908082528060200260200182016040528015611161578160200160208202803683370190505b5090506000845167ffffffffffffffff81111561118057611180611852565b6040519080825280602002602001820160405280156111b357816020015b606081526020019060019003908161119e5790505b50905060005b8551811015611210576040805160018082528183019092529060208083019080368337019050508282815181106111f2576111f2611ae9565b6020026020010181905250808061120890611ab1565b9150506111b9565b50600061121b610b98565b9050600061122882610ccd565b61ffff169050611239600283611a8b565b60405190925060005b8281101561127f5760006112598a89898989611319565b90506112658186611a8b565b94508260405250808061127790611ab1565b915050611242565b5061128a84876115d0565b98975050505050505050565b6112a08282610955565b60006112ab83610d5c565b919091555050565b6000610cc68284611a9e565b8051602082016020820281019150805b8281101561130757815b818110156112fe5781518151808210156112f4578084528183525b50506020016112d9565b506020016112cf565b50505050565b6000610cc68284611a8b565b60008060008061132885610f97565b909250905060008080606081600d61134b611344602089611a8b565b8990611702565b6113559190611a8b565b90506000611367610fba60688d611a8b565b905060006113848361137a60418f611a8b565b610fba9190611a8b565b905061139083826113a3565b93508260208501209450813596506113e5565b604080518381526020818501810190925260009101838382377fffffffffffffffffffffffffffffffffffffffffffffffffffffffffffffffe0019392505050565b6113f68765ffffffffffff16610adc565b61140a8561140560418f611a8b565b61170e565b9550611415866103b3565b60ff1699505050505050505060008060005b8481101561159d5761143a8885836117a4565b909350915060005b8c5181101561158a578c818151811061145d5761145d611ae9565b602002602001015184036115785760008b828151811061147f5761147f611ae9565b6020026020010151905061149881896001901b16151590565b1580156114c15750600160ff168d83815181106114b7576114b7611ae9565b6020026020010151105b15611572578c82815181106114d8576114d8611ae9565b6020026020010180518091906114ed90611ab1565b81525050838b838151811061150457611504611ae9565b602002602001015160018f858151811061152057611520611ae9565b60200260200101516115329190611a9e565b8151811061154257611542611ae9565b60209081029190910101526001881b81178c838151811061156557611565611ae9565b6020026020010181815250505b5061158a565b8061158281611ab1565b915050611442565b508061159581611ab1565b915050611427565b505050816020826115ae9190611a8b565b6115b89190611b5b565b6115c390604e611a8b565b9998505050505050505050565b60606000835167ffffffffffffffff8111156115ee576115ee611852565b604051908082528060200260200182016040528015611617578160200160208202803683370190505b509050600160005b85518110156116f8578185828151811061163b5761163b611ae9565b602002602001015110156116a15784818151811061165b5761165b611ae9565b6020026020010151826040517f2b13aef5000000000000000000000000000000000000000000000000000000008152600401610434929190918252602082015260400190565b60006116c58783815181106116b8576116b8611ae9565b6020026020010151610996565b9050808483815181106116da576116da611ae9565b602090810291909101015250806116f081611ab1565b91505061161f565b5090949350505050565b6000610cc68284611b5b565b60408051600080825260208083018085528690523685900380850135831a948401859052803560608501819052910135608084018190529193909260019060a0016020604051602081039080840390855afa158015611771573d6000803e3d6000fd5b50506040517fffffffffffffffffffffffffffffffffffffffffffffffffffffffffffffffe00151979650505050505050565b600080806117b3604e87611a8b565b905060006117e06117d96117c8602089611a8b565b6117d3886001611a8b565b90611702565b839061130d565b905060006117ee36836112b3565b80359960209091013598509650505050505050565b60006020828403121561181557600080fd5b813573ffffffffffffffffffffffffffffffffffffffff81168114610cc657600080fd5b60006020828403121561184b57600080fd5b5035919050565b7f4e487b7100000000000000000000000000000000000000000000000000000000600052604160045260246000fd5b604051601f82017fffffffffffffffffffffffffffffffffffffffffffffffffffffffffffffffe016810167ffffffffffffffff811182821017156118c8576118c8611852565b604052919050565b600067ffffffffffffffff8211156118ea576118ea611852565b5060051b60200190565b6000602080838503121561190757600080fd5b823567ffffffffffffffff81111561191e57600080fd5b8301601f8101851361192f57600080fd5b803561194261193d826118d0565b611881565b81815260059190911b8201830190838101908783111561196157600080fd5b928401925b8284101561197f57833582529284019290840190611966565b979650505050505050565b6020808252825182820181905260009190848201906040850190845b818110156119c2578351835292840192918401916001016119a6565b50909695505050505050565b600080604083850312156119e157600080fd5b50508035926020909101359150565b600060208083528351808285015260005b81811015611a1d57858101830151858201604001528201611a01565b5060006040828601015260407fffffffffffffffffffffffffffffffffffffffffffffffffffffffffffffffe0601f8301168501019250505092915050565b7f4e487b7100000000000000000000000000000000000000000000000000000000600052601160045260246000fd5b8082018082111561046057610460611a5c565b8181038181111561046057610460611a5c565b60007fffffffffffffffffffffffffffffffffffffffffffffffffffffffffffffffff8203611ae257611ae2611a5c565b5060010190565b7f4e487b7100000000000000000000000000000000000000000000000000000000600052603260045260246000fd5b7f4e487b7100000000000000000000000000000000000000000000000000000000600052601260045260246000fd5b600082611b5657611b56611b18565b500490565b808202811582820484141761046057610460611a5c565b600082611b8157611b81611b18565b50069056fea2646970667358221220dc2a532a1e6d6e5e05770ce0c26cf559896ffc291757ecc98cdf747c94ab45b264736f6c63430008140033",
  "devdoc": {
    "events": {
      "Initialized(uint8)": {
        "details": "Triggered when the contract has been initialized or reinitialized."
      }
    },
    "kind": "dev",
    "methods": {
      "aggregateValues(uint256[])": {
        "details": "This function may be overridden by the child consumer contract. It should aggregate values from different signers to a single uint value. By default, it calculates the median value",
        "params": {
          "values": "An array of uint256 values from different signers"
        },
        "returns": {
          "_0": "Result of the aggregation in the form of a single number"
        }
      },
      "getAllowedTimestampDiffsInSeconds()": {
        "details": "Helpful function for getting values for timestamp validation",
        "returns": {
          "maxDataAheadSeconds": "Max allowed number of seconds ahead of block.timrstamp",
          "maxDataDelaySeconds": "Max allowed number of seconds for data delay"
        }
      },
      "getBlockTimestamp()": {
        "details": "This function can be overriden, e.g. to use block.number instead of block.timestamp It can be useful in some L2 chains, as sometimes their different blocks can have the same timestamp",
        "returns": {
          "_0": "timestamp Timestamp or Block number or any other number that can identify time in the context of the given blockchain"
        }
      },
      "getBlockTimestampFromLatestUpdate()": {
        "returns": {
          "blockTimestamp": "The block timestamp of the latest successful update"
        }
      },
      "getDataFeedIds()": {
        "details": "this function must be implemented in derived contracts",
        "returns": {
          "dataFeedIds": "An array of data feed identifiers"
        }
      },
      "getDataFeedIndex(bytes32)": {
        "details": "This function can (and should) be overriden to reduce gas costs of other functions",
        "params": {
          "dataFeedId": "The data feed identifier"
        },
        "returns": {
          "_0": "index The index of the data feed"
        }
      },
      "getDataServiceId()": {
        "details": "This function must be implemented by the child consumer contract. It should return dataServiceId which DataServiceWrapper will use if not provided explicitly . If not overridden, value will always have to be provided explicitly in DataServiceWrapper.",
        "returns": {
          "_0": "dataServiceId being consumed by contract"
        }
      },
      "getDataTimestampFromLatestUpdate()": {
        "details": "It's virtual, because its implementation can sometimes be different (e.g. SinglePriceFeedAdapterWithClearing)",
        "returns": {
          "lastDataTimestamp": "Timestamp of the latest reported data packages"
        }
      },
      "getMinIntervalBetweenUpdates()": {
        "details": "You can override this function to change the required interval between udpates. Please do not set it to 0, as it may open many attack vectors",
        "returns": {
          "_0": "interval The required interval between updates"
        }
      },
      "getPackedTimestampsFromLatestUpdate()": {
        "details": "Returns 2 timestamps packed into a single uint256 number",
        "returns": {
          "packedTimestamps": "a single uin256 number with 2 timestamps"
        }
      },
      "getTimestampsFromLatestUpdate()": {
        "returns": {
          "blockTimestamp": "timestamp of the block when the update has happened",
          "dataTimestamp": "timestamp (usually in milliseconds) from the signed data packages"
        }
      },
      "getUniqueSignersThreshold()": {
        "details": "This function should be overridden by the child consumer contract.",
        "returns": {
          "_0": "The minimum required value of unique authorised signers"
        }
      },
      "getValueForDataFeed(bytes32)": {
        "params": {
          "dataFeedId": "The identifier of the requested data feed"
        },
        "returns": {
          "_0": "value The latest value of the given data feed"
        }
      },
      "getValueForDataFeedUnsafe(bytes32)": {
        "details": "[HIGH RISK] Returns the latest value for a given data feed without validation Important! Using this function instead of `getValueForDataFeed` may cause significant risk for your smart contracts",
        "params": {
          "dataFeedId": "The data feed identifier"
        },
        "returns": {
          "dataFeedValue": "Unvalidated value of the latest successful update"
        }
      },
      "getValuesForDataFeeds(bytes32[])": {
        "params": {
          "dataFeedIds": "The array of identifiers for the requested feeds"
        },
        "returns": {
          "_0": "values Values of the requested data feeds in the corresponding order"
        }
      },
      "getValuesForDataFeedsUnsafe(bytes32[])": {
        "params": {
          "requestedDataFeedIds": "The array of identifiers for the requested feeds"
        },
        "returns": {
          "values": "Unvalidated values of the requested data feeds in the corresponding order"
        }
      },
      "initialize()": {
        "details": "Helpful function for upgradable contracts"
      },
      "requireAuthorisedUpdater(address)": {
        "details": "This function should revert if msg.sender is not allowed to update data feed values",
        "params": {
          "updater": "The address of the proposed updater"
        }
      },
      "updateDataFeedsValues(uint256)": {
        "details": "This function requires an attached redstone payload to the transaction calldata. It also requires each data package to have exactly the same timestamp",
        "params": {
          "dataPackagesTimestamp": "Timestamp of each signed data package in the redstone payload"
        }
      },
      "validateDataFeedValue(bytes32,uint256)": {
        "details": "Reverts if proposed value for the proposed data feed id is invalid By default, it just checks if the value is not equal to 0, but it can be extended",
        "params": {
          "dataFeedId": "The data feed identifier",
          "valueForDataFeed": "Proposed value for the data feed"
        }
      },
      "validateDataPackagesTimestampOnce(uint256)": {
        "params": {
          "dataPackagesTimestamp": "The proposed timestamp (usually in milliseconds)"
        }
      },
      "validateProposedDataPackagesTimestamp(uint256)": {
        "params": {
          "dataPackagesTimestamp": "The proposed timestamp (usually in milliseconds)"
        }
      },
      "validateTimestamp(uint256)": {
        "details": "Note! This function is not called directly, it's called for each data package    . in redstone payload and just verifies if each data package has the same timestamp as the one that was saved in the storage",
        "params": {
          "receivedTimestampMilliseconds": "Timestamp from a data package"
        }
      }
    },
    "version": 1
  },
  "userdoc": {
    "kind": "user",
    "methods": {
      "getBlockTimestampFromLatestUpdate()": {
        "notice": "Returns block timestamp of the latest successful update"
      },
      "getDataFeedIds()": {
        "notice": "Returns identifiers of all data feeds supported by the Adapter contract"
      },
      "getDataFeedIndex(bytes32)": {
        "notice": "Returns the unique index of the given data feed"
      },
      "getDataTimestampFromLatestUpdate()": {
        "notice": "Returns data timestamp from the latest update"
      },
      "getMinIntervalBetweenUpdates()": {
        "notice": "Returns minimal required interval (usually in seconds) between subsequent updates"
      },
      "getTimestampsFromLatestUpdate()": {
        "notice": "Returns timestamps of the latest successful update"
      },
      "getValueForDataFeed(bytes32)": {
        "notice": "Returns the latest properly reported value of the data feed"
      },
      "getValuesForDataFeeds(bytes32[])": {
        "notice": "Returns the latest properly reported values for several data feeds"
      },
      "getValuesForDataFeedsUnsafe(bytes32[])": {
        "notice": "[HIGH RISK] Returns the latest properly reported values for several data feeds without validation Important! Using this function instead of `getValuesForDataFeeds` may cause significant risk for your smart contracts"
      },
      "requireAuthorisedUpdater(address)": {
        "notice": "Reverts if the updater is not authorised"
      },
      "updateDataFeedsValues(uint256)": {
        "notice": "Updates values of all data feeds supported by the Adapter contract"
      },
      "validateDataPackagesTimestampOnce(uint256)": {
        "notice": "Reverts if the proposed timestamp of data packages it too old or too new comparing to the current block timestamp"
      },
      "validateProposedDataPackagesTimestamp(uint256)": {
        "notice": "Reverts if the proposed timestamp of data packages it too old or too new comparing to the block.timestamp. It also ensures that the proposed timestamp is newer Then the one from the previous update"
      }
    },
    "version": 1
  },
  "storageLayout": {
    "storage": [
      {
        "astId": 1849,
        "contract": "contracts/PriceFeeds/XAU/PriceFeedAdapterXAU.sol:PriceFeedAdapterXAU",
        "label": "_initialized",
        "offset": 0,
        "slot": "0",
        "type": "t_uint8"
      },
      {
        "astId": 1852,
        "contract": "contracts/PriceFeeds/XAU/PriceFeedAdapterXAU.sol:PriceFeedAdapterXAU",
        "label": "_initializing",
        "offset": 1,
        "slot": "0",
        "type": "t_bool"
      }
    ],
    "types": {
      "t_bool": {
        "encoding": "inplace",
        "label": "bool",
        "numberOfBytes": "1"
      },
      "t_uint8": {
        "encoding": "inplace",
        "label": "uint8",
        "numberOfBytes": "1"
      }
    }
  }
}