{
  "address": "0x0216638cBd921F7075728BEe617835881B21307E",
  "abi": [
    {
      "inputs": [
        {
          "internalType": "contract IRedstoneAdapter",
          "name": "_adapterAddress",
          "type": "address"
        }
      ],
      "stateMutability": "nonpayable",
      "type": "constructor"
    },
    {
      "inputs": [
        {
          "internalType": "uint80",
          "name": "requestedRoundId",
          "type": "uint80"
        }
      ],
      "name": "GetRoundDataCanBeOnlyCalledWithLatestRound",
      "type": "error"
    },
    {
      "inputs": [
        {
          "internalType": "uint256",
          "name": "value",
          "type": "uint256"
        }
      ],
      "name": "UnsafeUintToIntConversion",
      "type": "error"
    },
    {
      "anonymous": false,
      "inputs": [
        {
          "indexed": false,
          "internalType": "uint8",
          "name": "version",
          "type": "uint8"
        }
      ],
      "name": "Initialized",
      "type": "event"
    },
    {
      "inputs": [],
      "name": "adapterAddress",
      "outputs": [
        {
          "internalType": "contract IRedstoneAdapter",
          "name": "",
          "type": "address"
        }
      ],
      "stateMutability": "view",
      "type": "function"
    },
    {
      "inputs": [],
      "name": "decimals",
      "outputs": [
        {
          "internalType": "uint8",
          "name": "",
          "type": "uint8"
        }
      ],
      "stateMutability": "pure",
      "type": "function"
    },
    {
      "inputs": [],
      "name": "description",
      "outputs": [
        {
          "internalType": "string",
          "name": "",
          "type": "string"
        }
      ],
      "stateMutability": "view",
      "type": "function"
    },
    {
      "inputs": [],
      "name": "getDataFeedId",
      "outputs": [
        {
          "internalType": "bytes32",
          "name": "",
          "type": "bytes32"
        }
      ],
      "stateMutability": "view",
      "type": "function"
    },
    {
      "inputs": [],
      "name": "getPriceFeedAdapter",
      "outputs": [
        {
          "internalType": "contract IRedstoneAdapter",
          "name": "",
          "type": "address"
        }
      ],
      "stateMutability": "view",
      "type": "function"
    },
    {
      "inputs": [
        {
          "internalType": "uint80",
          "name": "requestedRoundId",
          "type": "uint80"
        }
      ],
      "name": "getRoundData",
      "outputs": [
        {
          "internalType": "uint80",
          "name": "roundId",
          "type": "uint80"
        },
        {
          "internalType": "int256",
          "name": "answer",
          "type": "int256"
        },
        {
          "internalType": "uint256",
          "name": "startedAt",
          "type": "uint256"
        },
        {
          "internalType": "uint256",
          "name": "updatedAt",
          "type": "uint256"
        },
        {
          "internalType": "uint80",
          "name": "answeredInRound",
          "type": "uint80"
        }
      ],
      "stateMutability": "view",
      "type": "function"
    },
    {
      "inputs": [],
      "name": "initialize",
      "outputs": [],
      "stateMutability": "nonpayable",
      "type": "function"
    },
    {
      "inputs": [],
      "name": "latestAnswer",
      "outputs": [
        {
          "internalType": "int256",
          "name": "",
          "type": "int256"
        }
      ],
      "stateMutability": "view",
      "type": "function"
    },
    {
      "inputs": [],
      "name": "latestRound",
      "outputs": [
        {
          "internalType": "uint80",
          "name": "",
          "type": "uint80"
        }
      ],
      "stateMutability": "pure",
      "type": "function"
    },
    {
      "inputs": [],
      "name": "latestRoundData",
      "outputs": [
        {
          "internalType": "uint80",
          "name": "roundId",
          "type": "uint80"
        },
        {
          "internalType": "int256",
          "name": "answer",
          "type": "int256"
        },
        {
          "internalType": "uint256",
          "name": "startedAt",
          "type": "uint256"
        },
        {
          "internalType": "uint256",
          "name": "updatedAt",
          "type": "uint256"
        },
        {
          "internalType": "uint80",
          "name": "answeredInRound",
          "type": "uint80"
        }
      ],
      "stateMutability": "view",
      "type": "function"
    },
    {
      "inputs": [],
      "name": "version",
      "outputs": [
        {
          "internalType": "uint256",
          "name": "",
          "type": "uint256"
        }
      ],
      "stateMutability": "pure",
      "type": "function"
    }
  ],
  "transactionHash": "0xe2ce4290553a446bcfecf3dbe9e00543b79ecc2a56f66f0742c6e24655800b25",
  "args": [
    "0x2a88Ea6aAf8FD7907B4d6493F2B6777dDbfCC53C"
  ],
  "numDeployments": 1,
  "solcInputHash": "19727865a4639f09c9206c9294638860",
  "bytecode": "0x60a060405234801561001057600080fd5b506040516107b63803806107b683398101604081905261002f91610040565b6001600160a01b0316608052610070565b60006020828403121561005257600080fd5b81516001600160a01b038116811461006957600080fd5b9392505050565b60805161071761009f6000396000818160e40152818161015a015281816102a7015261058c01526107176000f3fe608060405234801561001057600080fd5b50600436106100c95760003560e01c806366c9aba6116100815780639a6fc8f51161005b5780639a6fc8f5146101c5578063c83377601461020f578063feaf968c1461023557600080fd5b806366c9aba6146101555780637284e4161461017c5780638129fc1c146101bb57600080fd5b806350d25bcd116100b257806350d25bcd1461012957806354fd4d501461013f578063668a0f021461014657600080fd5b8063313ce567146100ce57806347043b00146100e2575b600080fd5b604051600881526020015b60405180910390f35b7f00000000000000000000000000000000000000000000000000000000000000005b60405173ffffffffffffffffffffffffffffffffffffffff90911681526020016100d9565b61013161023d565b6040519081526020016100d9565b6001610131565b604051600081526020016100d9565b6101047f000000000000000000000000000000000000000000000000000000000000000081565b604080518082018252601381527f52656473746f6e65205072696365204665656400000000000000000000000000602082015290516100d99190610629565b6101c361037c565b005b6101d86101d3366004610695565b610506565b6040805169ffffffffffffffffffff968716815260208101959095528401929092526060830152909116608082015260a0016100d9565b7f4254430000000000000000000000000000000000000000000000000000000000610131565b6101d8610578565b6040517f44e029820000000000000000000000000000000000000000000000000000000081527f425443000000000000000000000000000000000000000000000000000000000060048201819052600091829073ffffffffffffffffffffffffffffffffffffffff7f000000000000000000000000000000000000000000000000000000000000000016906344e0298290602401602060405180830381865afa1580156102ee573d6000803e3d6000fd5b505050506040513d601f19601f8201168201806040525081019061031291906106c8565b90507f7fffffffffffffffffffffffffffffffffffffffffffffffffffffffffffffff811115610376576040517feccac09b000000000000000000000000000000000000000000000000000000008152600481018290526024015b60405180910390fd5b92915050565b600054610100900460ff161580801561039c5750600054600160ff909116105b806103b65750303b1580156103b6575060005460ff166001145b610442576040517f08c379a000000000000000000000000000000000000000000000000000000000815260206004820152602e60248201527f496e697469616c697a61626c653a20636f6e747261637420697320616c72656160448201527f647920696e697469616c697a6564000000000000000000000000000000000000606482015260840161036d565b600080547fffffffffffffffffffffffffffffffffffffffffffffffffffffffffffffff0016600117905580156104a057600080547fffffffffffffffffffffffffffffffffffffffffffffffffffffffffffff00ff166101001790555b801561050357600080547fffffffffffffffffffffffffffffffffffffffffffffffffffffffffffff00ff169055604051600181527f7f26b83ff96e1f2b6a682f133852f6798a09c465da95921460cefb38474024989060200160405180910390a15b50565b60008080808069ffffffffffffffffffff86161561055e576040517f22bfd6df00000000000000000000000000000000000000000000000000000000815269ffffffffffffffffffff8716600482015260240161036d565b610566610578565b939a9299509097509550909350915050565b60008080808061058661023d565b935060007f000000000000000000000000000000000000000000000000000000000000000073ffffffffffffffffffffffffffffffffffffffff16631b2758ee6040518163ffffffff1660e01b8152600401602060405180830381865afa1580156105f5573d6000803e3d6000fd5b505050506040513d601f19601f8201168201806040525081019061061991906106c8565b9596949594859450879350915050565b600060208083528351808285015260005b818110156106565785810183015185820160400152820161063a565b5060006040828601015260407fffffffffffffffffffffffffffffffffffffffffffffffffffffffffffffffe0601f8301168501019250505092915050565b6000602082840312156106a757600080fd5b813569ffffffffffffffffffff811681146106c157600080fd5b9392505050565b6000602082840312156106da57600080fd5b505191905056fea264697066735822122012438136ffd4db2b8d7288b0a2aee65fe16afa5d73430aab3fb39e2ae0da33aa64736f6c63430008140033",
  "devdoc": {
    "events": {
      "Initialized(uint8)": {
        "details": "Triggered when the contract has been initialized or reinitialized."
      }
    },
    "kind": "dev",
    "methods": {
      "decimals()": {
        "details": "By default, RedStone uses 8 decimals for data feeds",
        "returns": {
          "_0": "decimals The number of decimals in the price feed values"
        }
      },
      "description()": {
        "returns": {
          "_0": "description"
        }
      },
      "getDataFeedId()": {
        "returns": {
          "_0": "dataFeedId The identifier of the data feed"
        }
      },
      "getPriceFeedAdapter()": {
        "returns": {
          "_0": "address The address of the price feed adapter"
        }
      },
      "getRoundData(uint80)": {
        "details": "There are possible use cases that some contracts don't need values from old rounds but still rely on `getRoundData` or `latestRounud` functions"
      },
      "initialize()": {
        "details": "Helpful function for upgradable contracts"
      },
      "latestAnswer()": {
        "returns": {
          "_0": "latestAnswer The latest successfully reported value"
        }
      },
      "latestRound()": {
        "details": "We always return 0, since we do not support rounds in this contract"
      },
      "latestRoundData()": {
        "details": "It uses few helpful functions to abstract logic of getting latest round id and value",
        "returns": {
          "answer": "The latest reported value",
          "answeredInRound": "The number of the latest round",
          "roundId": "The number of the latest round",
          "startedAt": "Block timestamp when the latest successful round started",
          "updatedAt": "Block timestamp of the latest successful round"
        }
      },
      "version()": {
        "details": "Currently it has no specific motivation and was added only to be compatible with the Chainlink interface",
        "returns": {
          "_0": "version"
        }
      }
    },
    "version": 1
  },
  "userdoc": {
    "kind": "user",
    "methods": {
      "decimals()": {
        "notice": "Returns the number of decimals for the price feed"
      },
      "description()": {
        "notice": "Description of the Price Feed"
      },
      "getDataFeedId()": {
        "notice": "Returns data feed identifier for the PriceFeed contract"
      },
      "getPriceFeedAdapter()": {
        "notice": "Returns the address of the price feed adapter"
      },
      "latestAnswer()": {
        "notice": "Old Chainlink function for getting the latest successfully reported value"
      },
      "latestRoundData()": {
        "notice": "Returns details of the latest successful update round"
      },
      "version()": {
        "notice": "Version of the Price Feed"
      }
    },
    "version": 1
  },
  "storageLayout": {
    "storage": [
      {
        "astId": 2491,
        "contract": "contracts/PriceFeeds/BTC/PriceFeedBTC.sol:PriceFeedBTC",
        "label": "_initialized",
        "offset": 0,
        "slot": "0",
        "type": "t_uint8"
      },
      {
        "astId": 2494,
        "contract": "contracts/PriceFeeds/BTC/PriceFeedBTC.sol:PriceFeedBTC",
        "label": "_initializing",
        "offset": 1,
        "slot": "0",
        "type": "t_bool"
      }
    ],
    "types": {
      "t_bool": {
        "encoding": "inplace",
        "label": "bool",
        "numberOfBytes": "1"
      },
      "t_uint8": {
        "encoding": "inplace",
        "label": "uint8",
        "numberOfBytes": "1"
      }
    }
  }
}